{
  "_format": "hh-sol-artifact-1",
  "contractName": "ETF",
  "sourceName": "contracts/ETF.sol",
  "abi": [
    {
      "inputs": [
        {
          "internalType": "string",
          "name": "_name",
          "type": "string"
        },
        {
          "internalType": "string",
          "name": "_symbol",
          "type": "string"
        },
        {
          "internalType": "address",
          "name": "_router",
          "type": "address"
        },
        {
          "internalType": "address",
          "name": "_token1",
          "type": "address"
        },
        {
          "internalType": "address",
          "name": "_token2",
          "type": "address"
        }
      ],
      "stateMutability": "nonpayable",
      "type": "constructor"
    },
    {
      "anonymous": false,
      "inputs": [
        {
          "indexed": true,
          "internalType": "address",
          "name": "owner",
          "type": "address"
        },
        {
          "indexed": true,
          "internalType": "address",
          "name": "spender",
          "type": "address"
        },
        {
          "indexed": false,
          "internalType": "uint256",
          "name": "value",
          "type": "uint256"
        }
      ],
      "name": "Approval",
      "type": "event"
    },
    {
      "anonymous": false,
      "inputs": [
        {
          "indexed": true,
          "internalType": "address",
          "name": "previousOwner",
          "type": "address"
        },
        {
          "indexed": true,
          "internalType": "address",
          "name": "newOwner",
          "type": "address"
        }
      ],
      "name": "OwnershipTransferred",
      "type": "event"
    },
    {
      "anonymous": false,
      "inputs": [
        {
          "indexed": true,
          "internalType": "address",
          "name": "from",
          "type": "address"
        },
        {
          "indexed": true,
          "internalType": "address",
          "name": "to",
          "type": "address"
        },
        {
          "indexed": false,
          "internalType": "uint256",
          "name": "value",
          "type": "uint256"
        }
      ],
      "name": "Transfer",
      "type": "event"
    },
    {
      "inputs": [
        {
          "internalType": "address",
          "name": "owner",
          "type": "address"
        },
        {
          "internalType": "address",
          "name": "spender",
          "type": "address"
        }
      ],
      "name": "allowance",
      "outputs": [
        {
          "internalType": "uint256",
          "name": "",
          "type": "uint256"
        }
      ],
      "stateMutability": "view",
      "type": "function"
    },
    {
      "inputs": [
        {
          "internalType": "address",
          "name": "spender",
          "type": "address"
        },
        {
          "internalType": "uint256",
          "name": "amount",
          "type": "uint256"
        }
      ],
      "name": "approve",
      "outputs": [
        {
          "internalType": "bool",
          "name": "",
          "type": "bool"
        }
      ],
      "stateMutability": "nonpayable",
      "type": "function"
    },
    {
      "inputs": [
        {
          "internalType": "address",
          "name": "account",
          "type": "address"
        }
      ],
      "name": "balanceOf",
      "outputs": [
        {
          "internalType": "uint256",
          "name": "",
          "type": "uint256"
        }
      ],
      "stateMutability": "view",
      "type": "function"
    },
    {
      "inputs": [
        {
          "internalType": "uint256",
          "name": "_amount",
          "type": "uint256"
        }
      ],
      "name": "burn",
      "outputs": [],
      "stateMutability": "nonpayable",
      "type": "function"
    },
    {
      "inputs": [
        {
          "internalType": "uint256",
          "name": "_minimum_amount",
          "type": "uint256"
        }
      ],
      "name": "change_minimum_amount",
      "outputs": [],
      "stateMutability": "nonpayable",
      "type": "function"
    },
    {
      "inputs": [],
      "name": "decimals",
      "outputs": [
        {
          "internalType": "uint8",
          "name": "",
          "type": "uint8"
        }
      ],
      "stateMutability": "view",
      "type": "function"
    },
    {
      "inputs": [
        {
          "internalType": "address",
          "name": "spender",
          "type": "address"
        },
        {
          "internalType": "uint256",
          "name": "subtractedValue",
          "type": "uint256"
        }
      ],
      "name": "decreaseAllowance",
      "outputs": [
        {
          "internalType": "bool",
          "name": "",
          "type": "bool"
        }
      ],
      "stateMutability": "nonpayable",
      "type": "function"
    },
    {
      "inputs": [],
      "name": "fee_percentage_decimals",
      "outputs": [
        {
          "internalType": "uint256",
          "name": "",
          "type": "uint256"
        }
      ],
      "stateMutability": "view",
      "type": "function"
    },
    {
      "inputs": [
        {
          "internalType": "uint256",
          "name": "_amount",
          "type": "uint256"
        }
      ],
      "name": "getEtfPrice",
      "outputs": [
        {
          "internalType": "uint256",
          "name": "",
          "type": "uint256"
        }
      ],
      "stateMutability": "view",
      "type": "function"
    },
    {
      "inputs": [
        {
          "internalType": "uint256",
          "name": "_amount",
          "type": "uint256"
        },
        {
          "internalType": "address[]",
          "name": "_path",
          "type": "address[]"
        }
      ],
      "name": "getMinimumTokens",
      "outputs": [
        {
          "internalType": "uint256",
          "name": "",
          "type": "uint256"
        }
      ],
      "stateMutability": "view",
      "type": "function"
    },
    {
      "inputs": [
        {
          "internalType": "address",
          "name": "_token",
          "type": "address"
        }
      ],
      "name": "getTokenPath",
      "outputs": [
        {
          "internalType": "address[]",
          "name": "",
          "type": "address[]"
        }
      ],
      "stateMutability": "view",
      "type": "function"
    },
    {
      "inputs": [
        {
          "internalType": "address",
          "name": "_token",
          "type": "address"
        }
      ],
      "name": "getTokenPathReverse",
      "outputs": [
        {
          "internalType": "address[]",
          "name": "",
          "type": "address[]"
        }
      ],
      "stateMutability": "view",
      "type": "function"
    },
    {
      "inputs": [],
      "name": "getTokenPrice",
      "outputs": [
        {
          "internalType": "uint256[2]",
          "name": "",
          "type": "uint256[2]"
        }
      ],
      "stateMutability": "view",
      "type": "function"
    },
    {
      "inputs": [
        {
          "internalType": "address",
          "name": "spender",
          "type": "address"
        },
        {
          "internalType": "uint256",
          "name": "addedValue",
          "type": "uint256"
        }
      ],
      "name": "increaseAllowance",
      "outputs": [
        {
          "internalType": "bool",
          "name": "",
          "type": "bool"
        }
      ],
      "stateMutability": "nonpayable",
      "type": "function"
    },
    {
      "inputs": [],
      "name": "mint",
      "outputs": [],
      "stateMutability": "payable",
      "type": "function"
    },
    {
      "inputs": [],
      "name": "name",
      "outputs": [
        {
          "internalType": "string",
          "name": "",
          "type": "string"
        }
      ],
      "stateMutability": "view",
      "type": "function"
    },
    {
      "inputs": [],
      "name": "owner",
      "outputs": [
        {
          "internalType": "address",
          "name": "",
          "type": "address"
        }
      ],
      "stateMutability": "view",
      "type": "function"
    },
    {
      "inputs": [],
      "name": "owner_fee",
      "outputs": [
        {
          "internalType": "uint256",
          "name": "",
          "type": "uint256"
        }
      ],
      "stateMutability": "view",
      "type": "function"
    },
    {
      "inputs": [],
      "name": "pancakeRouter",
      "outputs": [
        {
          "internalType": "contract IPancakeRouter02",
          "name": "",
          "type": "address"
        }
      ],
      "stateMutability": "view",
      "type": "function"
    },
    {
      "inputs": [],
      "name": "renounceOwnership",
      "outputs": [],
      "stateMutability": "nonpayable",
      "type": "function"
    },
    {
      "inputs": [],
      "name": "symbol",
      "outputs": [
        {
          "internalType": "string",
          "name": "",
          "type": "string"
        }
      ],
      "stateMutability": "view",
      "type": "function"
    },
    {
      "inputs": [],
      "name": "token1amount",
      "outputs": [
        {
          "internalType": "uint256",
          "name": "",
          "type": "uint256"
        }
      ],
      "stateMutability": "view",
      "type": "function"
    },
    {
      "inputs": [],
      "name": "token2amount",
      "outputs": [
        {
          "internalType": "uint256",
          "name": "",
          "type": "uint256"
        }
      ],
      "stateMutability": "view",
      "type": "function"
    },
    {
      "inputs": [],
      "name": "totalSupply",
      "outputs": [
        {
          "internalType": "uint256",
          "name": "",
          "type": "uint256"
        }
      ],
      "stateMutability": "view",
      "type": "function"
    },
    {
      "inputs": [
        {
          "internalType": "address",
          "name": "to",
          "type": "address"
        },
        {
          "internalType": "uint256",
          "name": "amount",
          "type": "uint256"
        }
      ],
      "name": "transfer",
      "outputs": [
        {
          "internalType": "bool",
          "name": "",
          "type": "bool"
        }
      ],
      "stateMutability": "nonpayable",
      "type": "function"
    },
    {
      "inputs": [
        {
          "internalType": "address",
          "name": "from",
          "type": "address"
        },
        {
          "internalType": "address",
          "name": "to",
          "type": "address"
        },
        {
          "internalType": "uint256",
          "name": "amount",
          "type": "uint256"
        }
      ],
      "name": "transferFrom",
      "outputs": [
        {
          "internalType": "bool",
          "name": "",
          "type": "bool"
        }
      ],
      "stateMutability": "nonpayable",
      "type": "function"
    },
    {
      "inputs": [
        {
          "internalType": "address",
          "name": "newOwner",
          "type": "address"
        }
      ],
      "name": "transferOwnership",
      "outputs": [],
      "stateMutability": "nonpayable",
      "type": "function"
    },
    {
      "inputs": [],
      "name": "withdraw",
      "outputs": [],
      "stateMutability": "nonpayable",
      "type": "function"
    },
    {
      "stateMutability": "payable",
      "type": "receive"
    }
  ],
  "bytecode": "0x608060405264174876e8006006556005600b556003600c556032600d556032600e553480156200002e57600080fd5b5060405162004a5b38038062004a5b8339818101604052810190620000549190620003c0565b848481600390805190602001906200006e92919062000287565b5080600490805190602001906200008792919062000287565b505050620000aa6200009e620001b960201b60201c565b620001c160201b60201c565b82600760006101000a81548173ffffffffffffffffffffffffffffffffffffffff021916908373ffffffffffffffffffffffffffffffffffffffff16021790555082600a60006101000a81548173ffffffffffffffffffffffffffffffffffffffff021916908373ffffffffffffffffffffffffffffffffffffffff16021790555081600860006101000a81548173ffffffffffffffffffffffffffffffffffffffff021916908373ffffffffffffffffffffffffffffffffffffffff16021790555080600960006101000a81548173ffffffffffffffffffffffffffffffffffffffff021916908373ffffffffffffffffffffffffffffffffffffffff1602179055505050505050620005f3565b600033905090565b6000600560009054906101000a900473ffffffffffffffffffffffffffffffffffffffff16905081600560006101000a81548173ffffffffffffffffffffffffffffffffffffffff021916908373ffffffffffffffffffffffffffffffffffffffff1602179055508173ffffffffffffffffffffffffffffffffffffffff168173ffffffffffffffffffffffffffffffffffffffff167f8be0079c531659141344cd1fd0a4f28419497f9722a3daafe3b4186f6b6457e060405160405180910390a35050565b828054620002959062000545565b90600052602060002090601f016020900481019282620002b9576000855562000305565b82601f10620002d457805160ff191683800117855562000305565b8280016001018555821562000305579182015b8281111562000304578251825591602001919060010190620002e7565b5b50905062000314919062000318565b5090565b5b808211156200033357600081600090555060010162000319565b5090565b60006200034e6200034884620004a8565b62000474565b9050828152602081018484840111156200036757600080fd5b620003748482856200050f565b509392505050565b6000815190506200038d81620005d9565b92915050565b600082601f830112620003a557600080fd5b8151620003b784826020860162000337565b91505092915050565b600080600080600060a08688031215620003d957600080fd5b600086015167ffffffffffffffff811115620003f457600080fd5b620004028882890162000393565b955050602086015167ffffffffffffffff8111156200042057600080fd5b6200042e8882890162000393565b945050604062000441888289016200037c565b935050606062000454888289016200037c565b925050608062000467888289016200037c565b9150509295509295909350565b6000604051905081810181811067ffffffffffffffff821117156200049e576200049d620005aa565b5b8060405250919050565b600067ffffffffffffffff821115620004c657620004c5620005aa565b5b601f19601f8301169050602081019050919050565b6000620004e882620004ef565b9050919050565b600073ffffffffffffffffffffffffffffffffffffffff82169050919050565b60005b838110156200052f57808201518184015260208101905062000512565b838111156200053f576000848401525b50505050565b600060028204905060018216806200055e57607f821691505b602082108114156200057557620005746200057b565b5b50919050565b7f4e487b7100000000000000000000000000000000000000000000000000000000600052602260045260246000fd5b7f4e487b7100000000000000000000000000000000000000000000000000000000600052604160045260246000fd5b620005e481620004db565b8114620005f057600080fd5b50565b61445880620006036000396000f3fe6080604052600436106101bb5760003560e01c806370a08231116100ec578063a9059cbb1161008a578063c21ebd0711610064578063c21ebd0714610636578063dd62ed3e14610661578063f2fde38b1461069e578063fca36c93146106c7576101c2565b8063a9059cbb14610593578063b703628a146105d0578063bfed57531461060d576101c2565b80637e3f89f6116100c65780637e3f89f6146104c35780638da5cb5b1461050057806395d89b411461052b578063a457c2d714610556576101c2565b806370a0823114610432578063715018a61461046f57806379de9e8214610486576101c2565b8063313ce5671161015957806342966c681161013357806342966c68146103765780634b94f50e1461039f57806355741e82146103ca5780636a0c287a146103f5576101c2565b8063313ce567146102f757806339509351146103225780633ccfd60b1461035f576101c2565b806313cc02af1161019557806313cc02af1461023957806314ce40591461026457806318160ddd1461028f57806323b872dd146102ba576101c2565b806306fdde03146101c7578063095ea7b3146101f25780631249c58b1461022f576101c2565b366101c257005b600080fd5b3480156101d357600080fd5b506101dc6106f2565b6040516101e99190613b5b565b60405180910390f35b3480156101fe57600080fd5b5061021960048036038101906102149190613215565b610784565b6040516102269190613b25565b60405180910390f35b6102376107a7565b005b34801561024557600080fd5b5061024e610f9a565b60405161025b9190613d7d565b60405180910390f35b34801561027057600080fd5b50610279610fa0565b6040516102869190613d7d565b60405180910390f35b34801561029b57600080fd5b506102a4610fa6565b6040516102b19190613d7d565b60405180910390f35b3480156102c657600080fd5b506102e160048036038101906102dc91906131c6565b610fb0565b6040516102ee9190613b25565b60405180910390f35b34801561030357600080fd5b5061030c610fdf565b6040516103199190613e6e565b60405180910390f35b34801561032e57600080fd5b5061034960048036038101906103449190613215565b610fe8565b6040516103569190613b25565b60405180910390f35b34801561036b57600080fd5b50610374611092565b005b34801561038257600080fd5b5061039d600480360381019061039891906132bb565b6111bd565b005b3480156103ab57600080fd5b506103b46117c2565b6040516103c19190613b0a565b60405180910390f35b3480156103d657600080fd5b506103df611a38565b6040516103ec9190613d7d565b60405180910390f35b34801561040157600080fd5b5061041c60048036038101906104179190613138565b611a3e565b6040516104299190613ae8565b60405180910390f35b34801561043e57600080fd5b5061045960048036038101906104549190613138565b611c46565b6040516104669190613d7d565b60405180910390f35b34801561047b57600080fd5b50610484611c8e565b005b34801561049257600080fd5b506104ad60048036038101906104a891906132bb565b611d16565b6040516104ba9190613d7d565b60405180910390f35b3480156104cf57600080fd5b506104ea60048036038101906104e59190613138565b611f96565b6040516104f79190613ae8565b60405180910390f35b34801561050c57600080fd5b5061051561219e565b6040516105229190613a6d565b60405180910390f35b34801561053757600080fd5b506105406121c8565b60405161054d9190613b5b565b60405180910390f35b34801561056257600080fd5b5061057d60048036038101906105789190613215565b61225a565b60405161058a9190613b25565b60405180910390f35b34801561059f57600080fd5b506105ba60048036038101906105b59190613215565b612344565b6040516105c79190613b25565b60405180910390f35b3480156105dc57600080fd5b506105f760048036038101906105f2919061330d565b612367565b6040516106049190613d7d565b60405180910390f35b34801561061957600080fd5b50610634600480360381019061062f91906132bb565b612469565b005b34801561064257600080fd5b5061064b6124ef565b6040516106589190613b40565b60405180910390f35b34801561066d57600080fd5b506106886004803603810190610683919061318a565b612515565b6040516106959190613d7d565b60405180910390f35b3480156106aa57600080fd5b506106c560048036038101906106c09190613138565b61259c565b005b3480156106d357600080fd5b506106dc612694565b6040516106e99190613d7d565b60405180910390f35b606060038054610701906142d1565b80601f016020809104026020016040519081016040528092919081815260200182805461072d906142d1565b801561077a5780601f1061074f5761010080835404028352916020019161077a565b820191906000526020600020905b81548152906001019060200180831161075d57829003601f168201915b5050505050905090565b60008061078f61269a565b905061079c8185856126a2565b600191505092915050565b6006543410156107ec576040517f08c379a00000000000000000000000000000000000000000000000000000000081526004016107e390613d1d565b60405180910390fd5b6000600860009054906101000a900473ffffffffffffffffffffffffffffffffffffffff1673ffffffffffffffffffffffffffffffffffffffff166370a08231306040518263ffffffff1660e01b81526004016108499190613a6d565b60206040518083038186803b15801561086157600080fd5b505afa158015610875573d6000803e3d6000fd5b505050506040513d601f19601f8201168201806040525081019061089991906132e4565b90506000600960009054906101000a900473ffffffffffffffffffffffffffffffffffffffff1673ffffffffffffffffffffffffffffffffffffffff166370a08231306040518263ffffffff1660e01b81526004016108f89190613a6d565b60206040518083038186803b15801561091057600080fd5b505afa158015610924573d6000803e3d6000fd5b505050506040513d601f19601f8201168201806040525081019061094891906132e4565b90506000600c54600a61095b9190614079565b600b54346109699190614197565b6109739190613ff5565b90506000600f426109849190613f9f565b905060006109906117c2565b90506000816001600281106109ce577f4e487b7100000000000000000000000000000000000000000000000000000000600052603260045260246000fd5b602002015182600060028110610a0d577f4e487b7100000000000000000000000000000000000000000000000000000000600052603260045260246000fd5b6020020151610a1c9190613f9f565b606483600060028110610a58577f4e487b7100000000000000000000000000000000000000000000000000000000600052603260045260246000fd5b6020020151610a679190614197565b610a719190613ff5565b90506000816064610a8291906141f1565b90506000600286610a939190613ff5565b60648434610aa19190614197565b610aab9190613ff5565b610ab591906141f1565b90506000600287610ac69190613ff5565b60648434610ad49190614197565b610ade9190613ff5565b610ae891906141f1565b90506000610b2083610b1b600860009054906101000a900473ffffffffffffffffffffffffffffffffffffffff16611a3e565b612367565b90506000610b5883610b53600960009054906101000a900473ffffffffffffffffffffffffffffffffffffffff16611a3e565b612367565b90508284610b669190613f9f565b341015610ba8576040517f08c379a0000000000000000000000000000000000000000000000000000000008152600401610b9f90613c9d565b60405180910390fd5b600760009054906101000a900473ffffffffffffffffffffffffffffffffffffffff1673ffffffffffffffffffffffffffffffffffffffff16637ff36ab5856064606286610bf69190614197565b610c009190613ff5565b610c2b600860009054906101000a900473ffffffffffffffffffffffffffffffffffffffff16611a3e565b308d6040518663ffffffff1660e01b8152600401610c4c9493929190613dc8565b6000604051808303818588803b158015610c6557600080fd5b505af1158015610c79573d6000803e3d6000fd5b50505050506040513d6000823e3d601f19601f82011682018060405250810190610ca39190613251565b50600760009054906101000a900473ffffffffffffffffffffffffffffffffffffffff1673ffffffffffffffffffffffffffffffffffffffff16637ff36ab5846064606285610cf29190614197565b610cfc9190613ff5565b610d27600960009054906101000a900473ffffffffffffffffffffffffffffffffffffffff16611a3e565b308d6040518663ffffffff1660e01b8152600401610d489493929190613dc8565b6000604051808303818588803b158015610d6157600080fd5b505af1158015610d75573d6000803e3d6000fd5b50505050506040513d6000823e3d601f19601f82011682018060405250810190610d9f9190613251565b5060008b600860009054906101000a900473ffffffffffffffffffffffffffffffffffffffff1673ffffffffffffffffffffffffffffffffffffffff166370a08231306040518263ffffffff1660e01b8152600401610dfe9190613a6d565b60206040518083038186803b158015610e1657600080fd5b505afa158015610e2a573d6000803e3d6000fd5b505050506040513d601f19601f82011682018060405250810190610e4e91906132e4565b610e5891906141f1565b905060008b600960009054906101000a900473ffffffffffffffffffffffffffffffffffffffff1673ffffffffffffffffffffffffffffffffffffffff166370a08231306040518263ffffffff1660e01b8152600401610eb89190613a6d565b60206040518083038186803b158015610ed057600080fd5b505afa158015610ee4573d6000803e3d6000fd5b505050506040513d601f19601f82011682018060405250810190610f0891906132e4565b610f1291906141f1565b905060006064600d5484610f269190613ff5565b610f309190614197565b905060006064600e5484610f449190613ff5565b610f4e9190614197565b9050808211610f7257610f6d33606484610f689190613ff5565b61286d565b610f89565b610f8833606483610f839190613ff5565b61286d565b5b505050505050505050505050505050565b600d5481565b600b5481565b6000600254905090565b600080610fbb61269a565b9050610fc88582856129cd565b610fd3858585612a59565b60019150509392505050565b60006012905090565b600080610ff361269a565b9050611087818585600160008673ffffffffffffffffffffffffffffffffffffffff1673ffffffffffffffffffffffffffffffffffffffff16815260200190815260200160002060008973ffffffffffffffffffffffffffffffffffffffff1673ffffffffffffffffffffffffffffffffffffffff168152602001908152602001600020546110829190613f9f565b6126a2565b600191505092915050565b61109a61269a565b73ffffffffffffffffffffffffffffffffffffffff166110b861219e565b73ffffffffffffffffffffffffffffffffffffffff161461110e576040517f08c379a000000000000000000000000000000000000000000000000000000000815260040161110590613c5d565b60405180910390fd5b60003373ffffffffffffffffffffffffffffffffffffffff164760405161113490613a58565b60006040518083038185875af1925050503d8060008114611171576040519150601f19603f3d011682016040523d82523d6000602084013e611176565b606091505b50509050806111ba576040517f08c379a00000000000000000000000000000000000000000000000000000000081526004016111b190613cfd565b60405180910390fd5b50565b600a6006546111cc9190613ff5565b81101561120e576040517f08c379a000000000000000000000000000000000000000000000000000000000815260040161120590613c3d565b60405180910390fd5b3073ffffffffffffffffffffffffffffffffffffffff166323b872dd3330846040518463ffffffff1660e01b815260040161124b93929190613a88565b602060405180830381600087803b15801561126557600080fd5b505af1158015611279573d6000803e3d6000fd5b505050506040513d601f19601f8201168201806040525081019061129d9190613292565b6112a657600080fd5b600047905060006112d8600860009054906101000a900473ffffffffffffffffffffffffffffffffffffffff16611f96565b90506000611307600960009054906101000a900473ffffffffffffffffffffffffffffffffffffffff16611f96565b90506000606460626113198786612367565b6113239190614197565b61132d9190613ff5565b905060006064606261133f8886612367565b6113499190614197565b6113539190613ff5565b9050600860009054906101000a900473ffffffffffffffffffffffffffffffffffffffff1673ffffffffffffffffffffffffffffffffffffffff1663095ea7b3600a60009054906101000a900473ffffffffffffffffffffffffffffffffffffffff1688600d546113c49190614197565b6040518363ffffffff1660e01b81526004016113e1929190613abf565b602060405180830381600087803b1580156113fb57600080fd5b505af115801561140f573d6000803e3d6000fd5b505050506040513d601f19601f820116820180604052508101906114339190613292565b50600960009054906101000a900473ffffffffffffffffffffffffffffffffffffffff1673ffffffffffffffffffffffffffffffffffffffff1663095ea7b3600a60009054906101000a900473ffffffffffffffffffffffffffffffffffffffff1688600e546114a39190614197565b6040518363ffffffff1660e01b81526004016114c0929190613abf565b602060405180830381600087803b1580156114da57600080fd5b505af11580156114ee573d6000803e3d6000fd5b505050506040513d601f19601f820116820180604052508101906115129190613292565b50600760009054906101000a900473ffffffffffffffffffffffffffffffffffffffff1673ffffffffffffffffffffffffffffffffffffffff166318cbafe587600d5461155f9190614197565b848730600f4261156f9190613f9f565b6040518663ffffffff1660e01b815260040161158f959493929190613e14565b600060405180830381600087803b1580156115a957600080fd5b505af11580156115bd573d6000803e3d6000fd5b505050506040513d6000823e3d601f19601f820116820180604052508101906115e69190613251565b50600760009054906101000a900473ffffffffffffffffffffffffffffffffffffffff1673ffffffffffffffffffffffffffffffffffffffff166318cbafe587600e546116339190614197565b838630600f426116439190613f9f565b6040518663ffffffff1660e01b8152600401611663959493929190613e14565b600060405180830381600087803b15801561167d57600080fd5b505af1158015611691573d6000803e3d6000fd5b505050506040513d6000823e3d601f19601f820116820180604052508101906116ba9190613251565b50600085476116c991906141f1565b90506000600c54600a6116dc9190614079565b600b54836116ea9190614197565b6116f49190613ff5565b90506117003089612cda565b60003373ffffffffffffffffffffffffffffffffffffffff16828461172591906141f1565b60405161173190613a58565b60006040518083038185875af1925050503d806000811461176e576040519150601f19603f3d011682016040523d82523d6000602084013e611773565b606091505b50509050806117b7576040517f08c379a00000000000000000000000000000000000000000000000000000000081526004016117ae90613cfd565b60405180910390fd5b505050505050505050565b6117ca612f81565b60006117f7600860009054906101000a900473ffffffffffffffffffffffffffffffffffffffff16611a3e565b90506000611826600960009054906101000a900473ffffffffffffffffffffffffffffffffffffffff16611a3e565b90506000600760009054906101000a900473ffffffffffffffffffffffffffffffffffffffff1673ffffffffffffffffffffffffffffffffffffffff16631f00ca74600d54856040518363ffffffff1660e01b8152600401611889929190613d98565b60006040518083038186803b1580156118a157600080fd5b505afa1580156118b5573d6000803e3d6000fd5b505050506040513d6000823e3d601f19601f820116820180604052508101906118de9190613251565b90506000600760009054906101000a900473ffffffffffffffffffffffffffffffffffffffff1673ffffffffffffffffffffffffffffffffffffffff16631f00ca74600e54856040518363ffffffff1660e01b8152600401611941929190613d98565b60006040518083038186803b15801561195957600080fd5b505afa15801561196d573d6000803e3d6000fd5b505050506040513d6000823e3d601f19601f820116820180604052508101906119969190613251565b90506040518060400160405280836000815181106119dd577f4e487b7100000000000000000000000000000000000000000000000000000000600052603260045260246000fd5b6020026020010151815260200182600081518110611a24577f4e487b7100000000000000000000000000000000000000000000000000000000600052603260045260246000fd5b602002602001015181525094505050505090565b600c5481565b60606000600267ffffffffffffffff811115611a83577f4e487b7100000000000000000000000000000000000000000000000000000000600052604160045260246000fd5b604051908082528060200260200182016040528015611ab15781602001602082028036833780820191505090505b509050600760009054906101000a900473ffffffffffffffffffffffffffffffffffffffff1673ffffffffffffffffffffffffffffffffffffffff1663ad5c46486040518163ffffffff1660e01b815260040160206040518083038186803b158015611b1c57600080fd5b505afa158015611b30573d6000803e3d6000fd5b505050506040513d601f19601f82011682018060405250810190611b549190613161565b81600081518110611b8e577f4e487b7100000000000000000000000000000000000000000000000000000000600052603260045260246000fd5b602002602001019073ffffffffffffffffffffffffffffffffffffffff16908173ffffffffffffffffffffffffffffffffffffffff16815250508281600181518110611c03577f4e487b7100000000000000000000000000000000000000000000000000000000600052603260045260246000fd5b602002602001019073ffffffffffffffffffffffffffffffffffffffff16908173ffffffffffffffffffffffffffffffffffffffff168152505080915050919050565b60008060008373ffffffffffffffffffffffffffffffffffffffff1673ffffffffffffffffffffffffffffffffffffffff168152602001908152602001600020549050919050565b611c9661269a565b73ffffffffffffffffffffffffffffffffffffffff16611cb461219e565b73ffffffffffffffffffffffffffffffffffffffff1614611d0a576040517f08c379a0000000000000000000000000000000000000000000000000000000008152600401611d0190613c5d565b60405180910390fd5b611d146000612eb1565b565b600080600c54600a611d289190614079565b600b5484611d369190614197565b611d409190613ff5565b90506000611d4c6117c2565b9050600081600160028110611d8a577f4e487b7100000000000000000000000000000000000000000000000000000000600052603260045260246000fd5b602002015182600060028110611dc9577f4e487b7100000000000000000000000000000000000000000000000000000000600052603260045260246000fd5b6020020151611dd89190613f9f565b606483600060028110611e14577f4e487b7100000000000000000000000000000000000000000000000000000000600052603260045260246000fd5b6020020151611e239190614197565b611e2d9190613ff5565b90506000816064611e3e91906141f1565b90506000600285611e4f9190613ff5565b60648489611e5d9190614197565b611e679190613ff5565b611e7191906141f1565b90506000600286611e829190613ff5565b6064848a611e909190614197565b611e9a9190613ff5565b611ea491906141f1565b90506000611edc83611ed7600860009054906101000a900473ffffffffffffffffffffffffffffffffffffffff16611a3e565b612367565b90506000611f1483611f0f600960009054906101000a900473ffffffffffffffffffffffffffffffffffffffff16611a3e565b612367565b905060006064600d5484611f289190613ff5565b611f329190614197565b905060006064600e5484611f469190613ff5565b611f509190614197565b9050808211611f7757606482611f669190613ff5565b9a5050505050505050505050611f91565b606481611f849190613ff5565b9a50505050505050505050505b919050565b60606000600267ffffffffffffffff811115611fdb577f4e487b7100000000000000000000000000000000000000000000000000000000600052604160045260246000fd5b6040519080825280602002602001820160405280156120095781602001602082028036833780820191505090505b5090508281600081518110612047577f4e487b7100000000000000000000000000000000000000000000000000000000600052603260045260246000fd5b602002602001019073ffffffffffffffffffffffffffffffffffffffff16908173ffffffffffffffffffffffffffffffffffffffff1681525050600760009054906101000a900473ffffffffffffffffffffffffffffffffffffffff1673ffffffffffffffffffffffffffffffffffffffff1663ad5c46486040518163ffffffff1660e01b815260040160206040518083038186803b1580156120e957600080fd5b505afa1580156120fd573d6000803e3d6000fd5b505050506040513d601f19601f820116820180604052508101906121219190613161565b8160018151811061215b577f4e487b7100000000000000000000000000000000000000000000000000000000600052603260045260246000fd5b602002602001019073ffffffffffffffffffffffffffffffffffffffff16908173ffffffffffffffffffffffffffffffffffffffff168152505080915050919050565b6000600560009054906101000a900473ffffffffffffffffffffffffffffffffffffffff16905090565b6060600480546121d7906142d1565b80601f0160208091040260200160405190810160405280929190818152602001828054612203906142d1565b80156122505780601f1061222557610100808354040283529160200191612250565b820191906000526020600020905b81548152906001019060200180831161223357829003601f168201915b5050505050905090565b60008061226561269a565b90506000600160008373ffffffffffffffffffffffffffffffffffffffff1673ffffffffffffffffffffffffffffffffffffffff16815260200190815260200160002060008673ffffffffffffffffffffffffffffffffffffffff1673ffffffffffffffffffffffffffffffffffffffff1681526020019081526020016000205490508381101561232b576040517f08c379a000000000000000000000000000000000000000000000000000000000815260040161232290613d3d565b60405180910390fd5b61233882868684036126a2565b60019250505092915050565b60008061234f61269a565b905061235c818585612a59565b600191505092915050565b600080600760009054906101000a900473ffffffffffffffffffffffffffffffffffffffff1673ffffffffffffffffffffffffffffffffffffffff1663d06ca61f85856040518363ffffffff1660e01b81526004016123c7929190613d98565b60006040518083038186803b1580156123df57600080fd5b505afa1580156123f3573d6000803e3d6000fd5b505050506040513d6000823e3d601f19601f8201168201806040525081019061241c9190613251565b905080600181518110612458577f4e487b7100000000000000000000000000000000000000000000000000000000600052603260045260246000fd5b602002602001015191505092915050565b61247161269a565b73ffffffffffffffffffffffffffffffffffffffff1661248f61219e565b73ffffffffffffffffffffffffffffffffffffffff16146124e5576040517f08c379a00000000000000000000000000000000000000000000000000000000081526004016124dc90613c5d565b60405180910390fd5b8060068190555050565b600760009054906101000a900473ffffffffffffffffffffffffffffffffffffffff1681565b6000600160008473ffffffffffffffffffffffffffffffffffffffff1673ffffffffffffffffffffffffffffffffffffffff16815260200190815260200160002060008373ffffffffffffffffffffffffffffffffffffffff1673ffffffffffffffffffffffffffffffffffffffff16815260200190815260200160002054905092915050565b6125a461269a565b73ffffffffffffffffffffffffffffffffffffffff166125c261219e565b73ffffffffffffffffffffffffffffffffffffffff1614612618576040517f08c379a000000000000000000000000000000000000000000000000000000000815260040161260f90613c5d565b60405180910390fd5b600073ffffffffffffffffffffffffffffffffffffffff168173ffffffffffffffffffffffffffffffffffffffff161415612688576040517f08c379a000000000000000000000000000000000000000000000000000000000815260040161267f90613bbd565b60405180910390fd5b61269181612eb1565b50565b600e5481565b600033905090565b600073ffffffffffffffffffffffffffffffffffffffff168373ffffffffffffffffffffffffffffffffffffffff161415612712576040517f08c379a000000000000000000000000000000000000000000000000000000000815260040161270990613cdd565b60405180910390fd5b600073ffffffffffffffffffffffffffffffffffffffff168273ffffffffffffffffffffffffffffffffffffffff161415612782576040517f08c379a000000000000000000000000000000000000000000000000000000000815260040161277990613bdd565b60405180910390fd5b80600160008573ffffffffffffffffffffffffffffffffffffffff1673ffffffffffffffffffffffffffffffffffffffff16815260200190815260200160002060008473ffffffffffffffffffffffffffffffffffffffff1673ffffffffffffffffffffffffffffffffffffffff168152602001908152602001600020819055508173ffffffffffffffffffffffffffffffffffffffff168373ffffffffffffffffffffffffffffffffffffffff167f8c5be1e5ebec7d5bd14f71427d1e84f3dd0314c0f7b2291e5b200ac8c7c3b925836040516128609190613d7d565b60405180910390a3505050565b600073ffffffffffffffffffffffffffffffffffffffff168273ffffffffffffffffffffffffffffffffffffffff1614156128dd576040517f08c379a00000000000000000000000000000000000000000000000000000000081526004016128d490613d5d565b60405180910390fd5b6128e960008383612f77565b80600260008282546128fb9190613f9f565b92505081905550806000808473ffffffffffffffffffffffffffffffffffffffff1673ffffffffffffffffffffffffffffffffffffffff16815260200190815260200160002060008282546129509190613f9f565b925050819055508173ffffffffffffffffffffffffffffffffffffffff16600073ffffffffffffffffffffffffffffffffffffffff167fddf252ad1be2c89b69c2b068fc378daa952ba7f163c4a11628f55a4df523b3ef836040516129b59190613d7d565b60405180910390a36129c960008383612f7c565b5050565b60006129d98484612515565b90507fffffffffffffffffffffffffffffffffffffffffffffffffffffffffffffffff8114612a535781811015612a45576040517f08c379a0000000000000000000000000000000000000000000000000000000008152600401612a3c90613bfd565b60405180910390fd5b612a5284848484036126a2565b5b50505050565b600073ffffffffffffffffffffffffffffffffffffffff168373ffffffffffffffffffffffffffffffffffffffff161415612ac9576040517f08c379a0000000000000000000000000000000000000000000000000000000008152600401612ac090613cbd565b60405180910390fd5b600073ffffffffffffffffffffffffffffffffffffffff168273ffffffffffffffffffffffffffffffffffffffff161415612b39576040517f08c379a0000000000000000000000000000000000000000000000000000000008152600401612b3090613b7d565b60405180910390fd5b612b44838383612f77565b60008060008573ffffffffffffffffffffffffffffffffffffffff1673ffffffffffffffffffffffffffffffffffffffff16815260200190815260200160002054905081811015612bca576040517f08c379a0000000000000000000000000000000000000000000000000000000008152600401612bc190613c1d565b60405180910390fd5b8181036000808673ffffffffffffffffffffffffffffffffffffffff1673ffffffffffffffffffffffffffffffffffffffff16815260200190815260200160002081905550816000808573ffffffffffffffffffffffffffffffffffffffff1673ffffffffffffffffffffffffffffffffffffffff1681526020019081526020016000206000828254612c5d9190613f9f565b925050819055508273ffffffffffffffffffffffffffffffffffffffff168473ffffffffffffffffffffffffffffffffffffffff167fddf252ad1be2c89b69c2b068fc378daa952ba7f163c4a11628f55a4df523b3ef84604051612cc19190613d7d565b60405180910390a3612cd4848484612f7c565b50505050565b600073ffffffffffffffffffffffffffffffffffffffff168273ffffffffffffffffffffffffffffffffffffffff161415612d4a576040517f08c379a0000000000000000000000000000000000000000000000000000000008152600401612d4190613c7d565b60405180910390fd5b612d5682600083612f77565b60008060008473ffffffffffffffffffffffffffffffffffffffff1673ffffffffffffffffffffffffffffffffffffffff16815260200190815260200160002054905081811015612ddc576040517f08c379a0000000000000000000000000000000000000000000000000000000008152600401612dd390613b9d565b60405180910390fd5b8181036000808573ffffffffffffffffffffffffffffffffffffffff1673ffffffffffffffffffffffffffffffffffffffff168152602001908152602001600020819055508160026000828254612e3391906141f1565b92505081905550600073ffffffffffffffffffffffffffffffffffffffff168373ffffffffffffffffffffffffffffffffffffffff167fddf252ad1be2c89b69c2b068fc378daa952ba7f163c4a11628f55a4df523b3ef84604051612e989190613d7d565b60405180910390a3612eac83600084612f7c565b505050565b6000600560009054906101000a900473ffffffffffffffffffffffffffffffffffffffff16905081600560006101000a81548173ffffffffffffffffffffffffffffffffffffffff021916908373ffffffffffffffffffffffffffffffffffffffff1602179055508173ffffffffffffffffffffffffffffffffffffffff168173ffffffffffffffffffffffffffffffffffffffff167f8be0079c531659141344cd1fd0a4f28419497f9722a3daafe3b4186f6b6457e060405160405180910390a35050565b505050565b505050565b6040518060400160405280600290602082028036833780820191505090505090565b6000612fb6612fb184613eba565b613e89565b90508083825260208201905082856020860282011115612fd557600080fd5b60005b858110156130055781612feb888261307b565b845260208401935060208301925050600181019050612fd8565b5050509392505050565b600061302261301d84613ee6565b613e89565b9050808382526020820190508285602086028201111561304157600080fd5b60005b8581101561307157816130578882613123565b845260208401935060208301925050600181019050613044565b5050509392505050565b60008135905061308a816143dd565b92915050565b60008151905061309f816143dd565b92915050565b600082601f8301126130b657600080fd5b81356130c6848260208601612fa3565b91505092915050565b600082601f8301126130e057600080fd5b81516130f084826020860161300f565b91505092915050565b600081519050613108816143f4565b92915050565b60008135905061311d8161440b565b92915050565b6000815190506131328161440b565b92915050565b60006020828403121561314a57600080fd5b60006131588482850161307b565b91505092915050565b60006020828403121561317357600080fd5b600061318184828501613090565b91505092915050565b6000806040838503121561319d57600080fd5b60006131ab8582860161307b565b92505060206131bc8582860161307b565b9150509250929050565b6000806000606084860312156131db57600080fd5b60006131e98682870161307b565b93505060206131fa8682870161307b565b925050604061320b8682870161310e565b9150509250925092565b6000806040838503121561322857600080fd5b60006132368582860161307b565b92505060206132478582860161310e565b9150509250929050565b60006020828403121561326357600080fd5b600082015167ffffffffffffffff81111561327d57600080fd5b613289848285016130cf565b91505092915050565b6000602082840312156132a457600080fd5b60006132b2848285016130f9565b91505092915050565b6000602082840312156132cd57600080fd5b60006132db8482850161310e565b91505092915050565b6000602082840312156132f657600080fd5b600061330484828501613123565b91505092915050565b6000806040838503121561332057600080fd5b600061332e8582860161310e565b925050602083013567ffffffffffffffff81111561334b57600080fd5b613357858286016130a5565b9150509250929050565b600061336d8383613391565b60208301905092915050565b60006133858383613a2b565b60208301905092915050565b61339a81614225565b82525050565b6133a981614225565b82525050565b60006133ba82613f2c565b6133c48185613f67565b93506133cf83613f12565b8060005b838110156134005781516133e78882613361565b97506133f283613f4d565b9250506001810190506133d3565b5085935050505092915050565b61341681613f37565b6134208184613f78565b925061342b82613f22565b8060005b8381101561345c5781516134438782613379565b965061344e83613f5a565b92505060018101905061342f565b505050505050565b61346d81614237565b82525050565b61347c8161427a565b82525050565b600061348d82613f42565b6134978185613f8e565b93506134a781856020860161429e565b6134b0816143bf565b840191505092915050565b60006134c8602383613f8e565b91507f45524332303a207472616e7366657220746f20746865207a65726f206164647260008301527f65737300000000000000000000000000000000000000000000000000000000006020830152604082019050919050565b600061352e602283613f8e565b91507f45524332303a206275726e20616d6f756e7420657863656564732062616c616e60008301527f63650000000000000000000000000000000000000000000000000000000000006020830152604082019050919050565b6000613594602683613f8e565b91507f4f776e61626c653a206e6577206f776e657220697320746865207a65726f206160008301527f64647265737300000000000000000000000000000000000000000000000000006020830152604082019050919050565b60006135fa602283613f8e565b91507f45524332303a20617070726f766520746f20746865207a65726f20616464726560008301527f73730000000000000000000000000000000000000000000000000000000000006020830152604082019050919050565b6000613660601d83613f8e565b91507f45524332303a20696e73756666696369656e7420616c6c6f77616e63650000006000830152602082019050919050565b60006136a0602683613f8e565b91507f45524332303a207472616e7366657220616d6f756e742065786365656473206260008301527f616c616e636500000000000000000000000000000000000000000000000000006020830152604082019050919050565b6000613706601a83613f8e565b91507f73656c6c696e6720616d6f756e7420697320746f6f206c6f772e0000000000006000830152602082019050919050565b6000613746602083613f8e565b91507f4f776e61626c653a2063616c6c6572206973206e6f7420746865206f776e65726000830152602082019050919050565b6000613786602183613f8e565b91507f45524332303a206275726e2066726f6d20746865207a65726f2061646472657360008301527f73000000000000000000000000000000000000000000000000000000000000006020830152604082019050919050565b60006137ec600383613f8e565b91507f61616100000000000000000000000000000000000000000000000000000000006000830152602082019050919050565b600061382c602583613f8e565b91507f45524332303a207472616e736665722066726f6d20746865207a65726f20616460008301527f64726573730000000000000000000000000000000000000000000000000000006020830152604082019050919050565b6000613892600083613f83565b9150600082019050919050565b60006138ac602483613f8e565b91507f45524332303a20617070726f76652066726f6d20746865207a65726f2061646460008301527f72657373000000000000000000000000000000000000000000000000000000006020830152604082019050919050565b6000613912600f83613f8e565b91507f7472616e73666572206661696c656400000000000000000000000000000000006000830152602082019050919050565b6000613952601983613f8e565b91507f427579696e6720616d6f756e7420697320746f6f206c6f772e000000000000006000830152602082019050919050565b6000613992602583613f8e565b91507f45524332303a2064656372656173656420616c6c6f77616e63652062656c6f7760008301527f207a65726f0000000000000000000000000000000000000000000000000000006020830152604082019050919050565b60006139f8601f83613f8e565b91507f45524332303a206d696e7420746f20746865207a65726f2061646472657373006000830152602082019050919050565b613a3481614263565b82525050565b613a4381614263565b82525050565b613a528161426d565b82525050565b6000613a6382613885565b9150819050919050565b6000602082019050613a8260008301846133a0565b92915050565b6000606082019050613a9d60008301866133a0565b613aaa60208301856133a0565b613ab76040830184613a3a565b949350505050565b6000604082019050613ad460008301856133a0565b613ae16020830184613a3a565b9392505050565b60006020820190508181036000830152613b0281846133af565b905092915050565b6000604082019050613b1f600083018461340d565b92915050565b6000602082019050613b3a6000830184613464565b92915050565b6000602082019050613b556000830184613473565b92915050565b60006020820190508181036000830152613b758184613482565b905092915050565b60006020820190508181036000830152613b96816134bb565b9050919050565b60006020820190508181036000830152613bb681613521565b9050919050565b60006020820190508181036000830152613bd681613587565b9050919050565b60006020820190508181036000830152613bf6816135ed565b9050919050565b60006020820190508181036000830152613c1681613653565b9050919050565b60006020820190508181036000830152613c3681613693565b9050919050565b60006020820190508181036000830152613c56816136f9565b9050919050565b60006020820190508181036000830152613c7681613739565b9050919050565b60006020820190508181036000830152613c9681613779565b9050919050565b60006020820190508181036000830152613cb6816137df565b9050919050565b60006020820190508181036000830152613cd68161381f565b9050919050565b60006020820190508181036000830152613cf68161389f565b9050919050565b60006020820190508181036000830152613d1681613905565b9050919050565b60006020820190508181036000830152613d3681613945565b9050919050565b60006020820190508181036000830152613d5681613985565b9050919050565b60006020820190508181036000830152613d76816139eb565b9050919050565b6000602082019050613d926000830184613a3a565b92915050565b6000604082019050613dad6000830185613a3a565b8181036020830152613dbf81846133af565b90509392505050565b6000608082019050613ddd6000830187613a3a565b8181036020830152613def81866133af565b9050613dfe60408301856133a0565b613e0b6060830184613a3a565b95945050505050565b600060a082019050613e296000830188613a3a565b613e366020830187613a3a565b8181036040830152613e4881866133af565b9050613e5760608301856133a0565b613e646080830184613a3a565b9695505050505050565b6000602082019050613e836000830184613a49565b92915050565b6000604051905081810181811067ffffffffffffffff82111715613eb057613eaf614390565b5b8060405250919050565b600067ffffffffffffffff821115613ed557613ed4614390565b5b602082029050602081019050919050565b600067ffffffffffffffff821115613f0157613f00614390565b5b602082029050602081019050919050565b6000819050602082019050919050565b6000819050919050565b600081519050919050565b600060029050919050565b600081519050919050565b6000602082019050919050565b6000602082019050919050565b600082825260208201905092915050565b600081905092915050565b600081905092915050565b600082825260208201905092915050565b6000613faa82614263565b9150613fb583614263565b9250827fffffffffffffffffffffffffffffffffffffffffffffffffffffffffffffffff03821115613fea57613fe9614303565b5b828201905092915050565b600061400082614263565b915061400b83614263565b92508261401b5761401a614332565b5b828204905092915050565b6000808291508390505b60018511156140705780860481111561404c5761404b614303565b5b600185161561405b5780820291505b8081029050614069856143d0565b9450614030565b94509492505050565b600061408482614263565b915061408f83614263565b92506140bc7fffffffffffffffffffffffffffffffffffffffffffffffffffffffffffffffff84846140c4565b905092915050565b6000826140d45760019050614190565b816140e25760009050614190565b81600181146140f8576002811461410257614131565b6001915050614190565b60ff84111561411457614113614303565b5b8360020a91508482111561412b5761412a614303565b5b50614190565b5060208310610133831016604e8410600b84101617156141665782820a90508381111561416157614160614303565b5b614190565b6141738484846001614026565b9250905081840481111561418a57614189614303565b5b81810290505b9392505050565b60006141a282614263565b91506141ad83614263565b9250817fffffffffffffffffffffffffffffffffffffffffffffffffffffffffffffffff04831182151516156141e6576141e5614303565b5b828202905092915050565b60006141fc82614263565b915061420783614263565b92508282101561421a57614219614303565b5b828203905092915050565b600061423082614243565b9050919050565b60008115159050919050565b600073ffffffffffffffffffffffffffffffffffffffff82169050919050565b6000819050919050565b600060ff82169050919050565b60006142858261428c565b9050919050565b600061429782614243565b9050919050565b60005b838110156142bc5780820151818401526020810190506142a1565b838111156142cb576000848401525b50505050565b600060028204905060018216806142e957607f821691505b602082108114156142fd576142fc614361565b5b50919050565b7f4e487b7100000000000000000000000000000000000000000000000000000000600052601160045260246000fd5b7f4e487b7100000000000000000000000000000000000000000000000000000000600052601260045260246000fd5b7f4e487b7100000000000000000000000000000000000000000000000000000000600052602260045260246000fd5b7f4e487b7100000000000000000000000000000000000000000000000000000000600052604160045260246000fd5b6000601f19601f8301169050919050565b60008160011c9050919050565b6143e681614225565b81146143f157600080fd5b50565b6143fd81614237565b811461440857600080fd5b50565b61441481614263565b811461441f57600080fd5b5056fea26469706673582212204d74d65513a3189c4edab6904c02f32ac68aa120286508dadc4ed557007b028b64736f6c63430008000033",
  "linkReferences": {},
  "deployedLinkReferences": {}
}